{
  "contractName": "Healthcare",
  "abi": [
    {
      "anonymous": false,
      "inputs": [
        {
          "indexed": true,
          "internalType": "uint256",
          "name": "_ehrId",
          "type": "uint256"
        }
      ],
      "name": "ehrCreated",
      "type": "event"
    },
    {
      "anonymous": false,
      "inputs": [
        {
          "indexed": true,
          "internalType": "uint256",
          "name": "_ratingId",
          "type": "uint256"
        }
      ],
      "name": "ratingCreated",
      "type": "event"
    },
    {
      "anonymous": false,
      "inputs": [
        {
          "indexed": true,
          "internalType": "uint256",
          "name": "_userId",
          "type": "uint256"
        }
      ],
      "name": "userCreated",
      "type": "event"
    },
    {
      "inputs": [],
      "name": "ehrCount",
      "outputs": [
        {
          "internalType": "uint256",
          "name": "",
          "type": "uint256"
        }
      ],
      "stateMutability": "view",
      "type": "function",
      "constant": true
    },
    {
      "inputs": [
        {
          "internalType": "uint256",
          "name": "",
          "type": "uint256"
        }
      ],
      "name": "ehrList",
      "outputs": [
        {
          "internalType": "string",
          "name": "username",
          "type": "string"
        },
        {
          "internalType": "string",
          "name": "doctorname",
          "type": "string"
        },
        {
          "internalType": "string",
          "name": "disease_details",
          "type": "string"
        },
        {
          "internalType": "string",
          "name": "report",
          "type": "string"
        },
        {
          "internalType": "string",
          "name": "prescription",
          "type": "string"
        },
        {
          "internalType": "string",
          "name": "ehr_date",
          "type": "string"
        },
        {
          "internalType": "string",
          "name": "payment",
          "type": "string"
        },
        {
          "internalType": "string",
          "name": "signature",
          "type": "string"
        }
      ],
      "stateMutability": "view",
      "type": "function",
      "constant": true
    },
    {
      "inputs": [],
      "name": "ratingCount",
      "outputs": [
        {
          "internalType": "uint256",
          "name": "",
          "type": "uint256"
        }
      ],
      "stateMutability": "view",
      "type": "function",
      "constant": true
    },
    {
      "inputs": [
        {
          "internalType": "uint256",
          "name": "",
          "type": "uint256"
        }
      ],
      "name": "ratingList",
      "outputs": [
        {
          "internalType": "string",
          "name": "doctor",
          "type": "string"
        },
        {
          "internalType": "string",
          "name": "user",
          "type": "string"
        },
        {
          "internalType": "string",
          "name": "review",
          "type": "string"
        },
        {
          "internalType": "string",
          "name": "rating",
          "type": "string"
        },
        {
          "internalType": "string",
          "name": "rating_date",
          "type": "string"
        }
      ],
      "stateMutability": "view",
      "type": "function",
      "constant": true
    },
    {
      "inputs": [],
      "name": "userCount",
      "outputs": [
        {
          "internalType": "uint256",
          "name": "",
          "type": "uint256"
        }
      ],
      "stateMutability": "view",
      "type": "function",
      "constant": true
    },
    {
      "inputs": [
        {
          "internalType": "uint256",
          "name": "",
          "type": "uint256"
        }
      ],
      "name": "userList",
      "outputs": [
        {
          "internalType": "string",
          "name": "username",
          "type": "string"
        },
        {
          "internalType": "string",
          "name": "password",
          "type": "string"
        },
        {
          "internalType": "string",
          "name": "phone",
          "type": "string"
        },
        {
          "internalType": "string",
          "name": "desc",
          "type": "string"
        },
        {
          "internalType": "string",
          "name": "usertype",
          "type": "string"
        }
      ],
      "stateMutability": "view",
      "type": "function",
      "constant": true
    },
    {
      "inputs": [
        {
          "internalType": "string",
          "name": "uname",
          "type": "string"
        },
        {
          "internalType": "string",
          "name": "pass",
          "type": "string"
        },
        {
          "internalType": "string",
          "name": "phone",
          "type": "string"
        },
        {
          "internalType": "string",
          "name": "desc",
          "type": "string"
        },
        {
          "internalType": "string",
          "name": "utype",
          "type": "string"
        }
      ],
      "name": "saveUser",
      "outputs": [],
      "stateMutability": "nonpayable",
      "type": "function"
    },
    {
      "inputs": [],
      "name": "getUserCount",
      "outputs": [
        {
          "internalType": "uint256",
          "name": "",
          "type": "uint256"
        }
      ],
      "stateMutability": "view",
      "type": "function",
      "constant": true
    },
    {
      "inputs": [
        {
          "internalType": "string",
          "name": "uname",
          "type": "string"
        },
        {
          "internalType": "string",
          "name": "doctor",
          "type": "string"
        },
        {
          "internalType": "string",
          "name": "disease",
          "type": "string"
        },
        {
          "internalType": "string",
          "name": "report",
          "type": "string"
        },
        {
          "internalType": "string",
          "name": "pres",
          "type": "string"
        },
        {
          "internalType": "string",
          "name": "edate",
          "type": "string"
        },
        {
          "internalType": "string",
          "name": "pay",
          "type": "string"
        },
        {
          "internalType": "string",
          "name": "sig",
          "type": "string"
        }
      ],
      "name": "saveEhr",
      "outputs": [],
      "stateMutability": "nonpayable",
      "type": "function"
    },
    {
      "inputs": [
        {
          "internalType": "uint256",
          "name": "i",
          "type": "uint256"
        },
        {
          "internalType": "string",
          "name": "pres",
          "type": "string"
        }
      ],
      "name": "updatePrescription",
      "outputs": [],
      "stateMutability": "nonpayable",
      "type": "function"
    },
    {
      "inputs": [],
      "name": "getEhrCount",
      "outputs": [
        {
          "internalType": "uint256",
          "name": "",
          "type": "uint256"
        }
      ],
      "stateMutability": "view",
      "type": "function",
      "constant": true
    },
    {
      "inputs": [
        {
          "internalType": "string",
          "name": "doctors",
          "type": "string"
        },
        {
          "internalType": "string",
          "name": "users",
          "type": "string"
        },
        {
          "internalType": "string",
          "name": "reviews",
          "type": "string"
        },
        {
          "internalType": "string",
          "name": "ratings",
          "type": "string"
        },
        {
          "internalType": "string",
          "name": "rating_dates",
          "type": "string"
        }
      ],
      "name": "saveRating",
      "outputs": [],
      "stateMutability": "nonpayable",
      "type": "function"
    },
    {
      "inputs": [],
      "name": "getRatingCount",
      "outputs": [
        {
          "internalType": "uint256",
          "name": "",
          "type": "uint256"
        }
      ],
      "stateMutability": "view",
      "type": "function",
      "constant": true
    },
    {
      "inputs": [
        {
          "internalType": "uint256",
          "name": "i",
          "type": "uint256"
        }
      ],
      "name": "getUsername",
      "outputs": [
        {
          "internalType": "string",
          "name": "",
          "type": "string"
        }
      ],
      "stateMutability": "view",
      "type": "function",
      "constant": true
    },
    {
      "inputs": [
        {
          "internalType": "uint256",
          "name": "i",
          "type": "uint256"
        }
      ],
      "name": "getPassword",
      "outputs": [
        {
          "internalType": "string",
          "name": "",
          "type": "string"
        }
      ],
      "stateMutability": "view",
      "type": "function",
      "constant": true
    },
    {
      "inputs": [
        {
          "internalType": "uint256",
          "name": "i",
          "type": "uint256"
        }
      ],
      "name": "getPhone",
      "outputs": [
        {
          "internalType": "string",
          "name": "",
          "type": "string"
        }
      ],
      "stateMutability": "view",
      "type": "function",
      "constant": true
    },
    {
      "inputs": [
        {
          "internalType": "uint256",
          "name": "i",
          "type": "uint256"
        }
      ],
      "name": "getDescription",
      "outputs": [
        {
          "internalType": "string",
          "name": "",
          "type": "string"
        }
      ],
      "stateMutability": "view",
      "type": "function",
      "constant": true
    },
    {
      "inputs": [
        {
          "internalType": "uint256",
          "name": "i",
          "type": "uint256"
        }
      ],
      "name": "getUserType",
      "outputs": [
        {
          "internalType": "string",
          "name": "",
          "type": "string"
        }
      ],
      "stateMutability": "view",
      "type": "function",
      "constant": true
    },
    {
      "inputs": [
        {
          "internalType": "uint256",
          "name": "i",
          "type": "uint256"
        }
      ],
      "name": "getPatient",
      "outputs": [
        {
          "internalType": "string",
          "name": "",
          "type": "string"
        }
      ],
      "stateMutability": "view",
      "type": "function",
      "constant": true
    },
    {
      "inputs": [
        {
          "internalType": "uint256",
          "name": "i",
          "type": "uint256"
        }
      ],
      "name": "getDoctor",
      "outputs": [
        {
          "internalType": "string",
          "name": "",
          "type": "string"
        }
      ],
      "stateMutability": "view",
      "type": "function",
      "constant": true
    },
    {
      "inputs": [
        {
          "internalType": "uint256",
          "name": "i",
          "type": "uint256"
        }
      ],
      "name": "getDisease",
      "outputs": [
        {
          "internalType": "string",
          "name": "",
          "type": "string"
        }
      ],
      "stateMutability": "view",
      "type": "function",
      "constant": true
    },
    {
      "inputs": [
        {
          "internalType": "uint256",
          "name": "i",
          "type": "uint256"
        }
      ],
      "name": "getReport",
      "outputs": [
        {
          "internalType": "string",
          "name": "",
          "type": "string"
        }
      ],
      "stateMutability": "view",
      "type": "function",
      "constant": true
    },
    {
      "inputs": [
        {
          "internalType": "uint256",
          "name": "i",
          "type": "uint256"
        }
      ],
      "name": "getPrescription",
      "outputs": [
        {
          "internalType": "string",
          "name": "",
          "type": "string"
        }
      ],
      "stateMutability": "view",
      "type": "function",
      "constant": true
    },
    {
      "inputs": [
        {
          "internalType": "uint256",
          "name": "i",
          "type": "uint256"
        }
      ],
      "name": "getPayment",
      "outputs": [
        {
          "internalType": "string",
          "name": "",
          "type": "string"
        }
      ],
      "stateMutability": "view",
      "type": "function",
      "constant": true
    },
    {
      "inputs": [
        {
          "internalType": "uint256",
          "name": "i",
          "type": "uint256"
        }
      ],
      "name": "getSignature",
      "outputs": [
        {
          "internalType": "string",
          "name": "",
          "type": "string"
        }
      ],
      "stateMutability": "view",
      "type": "function",
      "constant": true
    },
    {
      "inputs": [
        {
          "internalType": "uint256",
          "name": "i",
          "type": "uint256"
        }
      ],
      "name": "getEhrDate",
      "outputs": [
        {
          "internalType": "string",
          "name": "",
          "type": "string"
        }
      ],
      "stateMutability": "view",
      "type": "function",
      "constant": true
    },
    {
      "inputs": [
        {
          "internalType": "uint256",
          "name": "i",
          "type": "uint256"
        }
      ],
      "name": "getDoctorRating",
      "outputs": [
        {
          "internalType": "string",
          "name": "",
          "type": "string"
        }
      ],
      "stateMutability": "view",
      "type": "function",
      "constant": true
    },
    {
      "inputs": [
        {
          "internalType": "uint256",
          "name": "i",
          "type": "uint256"
        }
      ],
      "name": "getUserRating",
      "outputs": [
        {
          "internalType": "string",
          "name": "",
          "type": "string"
        }
      ],
      "stateMutability": "view",
      "type": "function",
      "constant": true
    },
    {
      "inputs": [
        {
          "internalType": "uint256",
          "name": "i",
          "type": "uint256"
        }
      ],
      "name": "getReview",
      "outputs": [
        {
          "internalType": "string",
          "name": "",
          "type": "string"
        }
      ],
      "stateMutability": "view",
      "type": "function",
      "constant": true
    },
    {
      "inputs": [
        {
          "internalType": "uint256",
          "name": "i",
          "type": "uint256"
        }
      ],
      "name": "getRating",
      "outputs": [
        {
          "internalType": "string",
          "name": "",
          "type": "string"
        }
      ],
      "stateMutability": "view",
      "type": "function",
      "constant": true
    },
    {
      "inputs": [
        {
          "internalType": "uint256",
          "name": "i",
          "type": "uint256"
        }
      ],
      "name": "getRatingDate",
      "outputs": [
        {
          "internalType": "string",
          "name": "",
          "type": "string"
        }
      ],
      "stateMutability": "view",
      "type": "function",
      "constant": true
    }
  ],
  "bytecode": "0x6080604052600080556000600255600060045534801561001e57600080fd5b506148d68061002e6000396000f3fe608060405234801561001057600080fd5b5060043610610201576000357c0100000000000000000000000000000000000000000000000000000000900480636f16af101161012c578063b5cb15f7116100bf578063d3965ab01161008e578063d3965ab01461040b578063e9a6f3461461041e578063f18d18cc14610431578063f38c6bb61461044457600080fd5b8063b5cb15f7146103b6578063b9260a80146103be578063bb36bf9d146103e5578063bfa3ab40146103f857600080fd5b80638cea39b6116100fb5780638cea39b614610359578063990581b61461037d5780639f4216e814610390578063b0ee0e9f146103a357600080fd5b80636f16af1014610317578063745ccb361461032a5780637cd7710d1461033d5780637d3a67961461034657600080fd5b8063227c1f18116101a45780634925ec55116101735780634925ec55146102cb5780634e7f9b19146102de57806368f5e10d146102f157806369b0a72d1461030457600080fd5b8063227c1f1814610294578063248640811461029c5780632e7d44b5146102a55780633280a836146102b857600080fd5b80630beca10e116101e05780630beca10e146102465780630e1301151461025957806311824ffa1461026e57806313f58f711461028157600080fd5b8062667c4c1461020657806302a569e61461021d57806307973ccf1461023d575b600080fd5b6002545b6040519081526020015b60405180910390f35b61023061022b366004614359565b610457565b60405161021491906143bf565b61020a60005481565b610230610254366004614359565b610916565b61026c610267366004614495565b610dd5565b005b61023061027c366004614359565b610dff565b61023061028f366004614359565b611107565b60045461020a565b61020a60045481565b6102306102b3366004614359565b611139565b6102306102c6366004614359565b6113b3565b6102306102d9366004614359565b611872565b6102306102ec366004614359565b611b7a565b6102306102ff366004614359565b611fab565b610230610312366004614359565b6122b1565b610230610325366004614359565b612770565b61026c6103383660046144dc565b612ba1565b61020a60025481565b610230610354366004614359565b612d1d565b61036c610367366004614359565b61314e565b60405161021495949392919061461c565b61023061038b366004614359565b613424565b61036c61039e366004614359565b613456565b6102306103b1366004614359565b613471565b60005461020a565b6103d16103cc366004614359565b6134a3565b604051610214989796959493929190614689565b6102306103f3366004614359565b613923565b61026c610406366004614738565b613de2565b610230610419366004614359565b613eea565b61026c61042c366004614738565b614164565b61023061043f366004614359565b61425c565b610230610452366004614359565b61428e565b60606000600360008481526020019081526020016000206040518061010001604052908160008201805461048a9061480a565b80601f01602080910402602001604051908101604052809291908181526020018280546104b69061480a565b80156105035780601f106104d857610100808354040283529160200191610503565b820191906000526020600020905b8154815290600101906020018083116104e657829003601f168201915b5050505050815260200160018201805461051c9061480a565b80601f01602080910402602001604051908101604052809291908181526020018280546105489061480a565b80156105955780601f1061056a57610100808354040283529160200191610595565b820191906000526020600020905b81548152906001019060200180831161057857829003601f168201915b505050505081526020016002820180546105ae9061480a565b80601f01602080910402602001604051908101604052809291908181526020018280546105da9061480a565b80156106275780601f106105fc57610100808354040283529160200191610627565b820191906000526020600020905b81548152906001019060200180831161060a57829003601f168201915b505050505081526020016003820180546106409061480a565b80601f016020809104026020016040519081016040528092919081815260200182805461066c9061480a565b80156106b95780601f1061068e576101008083540402835291602001916106b9565b820191906000526020600020905b81548152906001019060200180831161069c57829003601f168201915b505050505081526020016004820180546106d29061480a565b80601f01602080910402602001604051908101604052809291908181526020018280546106fe9061480a565b801561074b5780601f106107205761010080835404028352916020019161074b565b820191906000526020600020905b81548152906001019060200180831161072e57829003601f168201915b505050505081526020016005820180546107649061480a565b80601f01602080910402602001604051908101604052809291908181526020018280546107909061480a565b80156107dd5780601f106107b2576101008083540402835291602001916107dd565b820191906000526020600020905b8154815290600101906020018083116107c057829003601f168201915b505050505081526020016006820180546107f69061480a565b80601f01602080910402602001604051908101604052809291908181526020018280546108229061480a565b801561086f5780601f106108445761010080835404028352916020019161086f565b820191906000526020600020905b81548152906001019060200180831161085257829003601f168201915b505050505081526020016007820180546108889061480a565b80601f01602080910402602001604051908101604052809291908181526020018280546108b49061480a565b80156109015780601f106108d657610100808354040283529160200191610901565b820191906000526020600020905b8154815290600101906020018083116108e457829003601f168201915b5050509190925250505060e001519392505050565b6060600060036000848152602001908152602001600020604051806101000160405290816000820180546109499061480a565b80601f01602080910402602001604051908101604052809291908181526020018280546109759061480a565b80156109c25780601f10610997576101008083540402835291602001916109c2565b820191906000526020600020905b8154815290600101906020018083116109a557829003601f168201915b505050505081526020016001820180546109db9061480a565b80601f0160208091040260200160405190810160405280929190818152602001828054610a079061480a565b8015610a545780601f10610a2957610100808354040283529160200191610a54565b820191906000526020600020905b815481529060010190602001808311610a3757829003601f168201915b50505050508152602001600282018054610a6d9061480a565b80601f0160208091040260200160405190810160405280929190818152602001828054610a999061480a565b8015610ae65780601f10610abb57610100808354040283529160200191610ae6565b820191906000526020600020905b815481529060010190602001808311610ac957829003601f168201915b50505050508152602001600382018054610aff9061480a565b80601f0160208091040260200160405190810160405280929190818152602001828054610b2b9061480a565b8015610b785780601f10610b4d57610100808354040283529160200191610b78565b820191906000526020600020905b815481529060010190602001808311610b5b57829003601f168201915b50505050508152602001600482018054610b919061480a565b80601f0160208091040260200160405190810160405280929190818152602001828054610bbd9061480a565b8015610c0a5780601f10610bdf57610100808354040283529160200191610c0a565b820191906000526020600020905b815481529060010190602001808311610bed57829003601f168201915b50505050508152602001600582018054610c239061480a565b80601f0160208091040260200160405190810160405280929190818152602001828054610c4f9061480a565b8015610c9c5780601f10610c7157610100808354040283529160200191610c9c565b820191906000526020600020905b815481529060010190602001808311610c7f57829003601f168201915b50505050508152602001600682018054610cb59061480a565b80601f0160208091040260200160405190810160405280929190818152602001828054610ce19061480a565b8015610d2e5780601f10610d0357610100808354040283529160200191610d2e565b820191906000526020600020905b815481529060010190602001808311610d1157829003601f168201915b50505050508152602001600782018054610d479061480a565b80601f0160208091040260200160405190810160405280929190818152602001828054610d739061480a565b8015610dc05780601f10610d9557610100808354040283529160200191610dc0565b820191906000526020600020905b815481529060010190602001808311610da357829003601f168201915b50505091909252505050604001519392505050565b60008281526003602090815260409091208251610dfa926004909201918401906142c0565b505050565b60606000600560008481526020019081526020016000206040518060a0016040529081600082018054610e319061480a565b80601f0160208091040260200160405190810160405280929190818152602001828054610e5d9061480a565b8015610eaa5780601f10610e7f57610100808354040283529160200191610eaa565b820191906000526020600020905b815481529060010190602001808311610e8d57829003601f168201915b50505050508152602001600182018054610ec39061480a565b80601f0160208091040260200160405190810160405280929190818152602001828054610eef9061480a565b8015610f3c5780601f10610f1157610100808354040283529160200191610f3c565b820191906000526020600020905b815481529060010190602001808311610f1f57829003601f168201915b50505050508152602001600282018054610f559061480a565b80601f0160208091040260200160405190810160405280929190818152602001828054610f819061480a565b8015610fce5780601f10610fa357610100808354040283529160200191610fce565b820191906000526020600020905b815481529060010190602001808311610fb157829003601f168201915b50505050508152602001600382018054610fe79061480a565b80601f01602080910402602001604051908101604052809291908181526020018280546110139061480a565b80156110605780601f1061103557610100808354040283529160200191611060565b820191906000526020600020905b81548152906001019060200180831161104357829003601f168201915b505050505081526020016004820180546110799061480a565b80601f01602080910402602001604051908101604052809291908181526020018280546110a59061480a565b80156110f25780601f106110c7576101008083540402835291602001916110f2565b820191906000526020600020905b8154815290600101906020018083116110d557829003601f168201915b50505091909252505050608001519392505050565b60606000600160008481526020019081526020016000206040518060a0016040529081600082018054610e319061480a565b60606000600160008481526020019081526020016000206040518060a001604052908160008201805461116b9061480a565b80601f01602080910402602001604051908101604052809291908181526020018280546111979061480a565b80156111e45780601f106111b9576101008083540402835291602001916111e4565b820191906000526020600020905b8154815290600101906020018083116111c757829003601f168201915b505050505081526020016001820180546111fd9061480a565b80601f01602080910402602001604051908101604052809291908181526020018280546112299061480a565b80156112765780601f1061124b57610100808354040283529160200191611276565b820191906000526020600020905b81548152906001019060200180831161125957829003601f168201915b5050505050815260200160028201805461128f9061480a565b80601f01602080910402602001604051908101604052809291908181526020018280546112bb9061480a565b80156113085780601f106112dd57610100808354040283529160200191611308565b820191906000526020600020905b8154815290600101906020018083116112eb57829003601f168201915b505050505081526020016003820180546113219061480a565b80601f016020809104026020016040519081016040528092919081815260200182805461134d9061480a565b801561139a5780601f1061136f5761010080835404028352916020019161139a565b820191906000526020600020905b81548152906001019060200180831161137d57829003601f168201915b50505050508152602001600482018054610d479061480a565b6060600060036000848152602001908152602001600020604051806101000160405290816000820180546113e69061480a565b80601f01602080910402602001604051908101604052809291908181526020018280546114129061480a565b801561145f5780601f106114345761010080835404028352916020019161145f565b820191906000526020600020905b81548152906001019060200180831161144257829003601f168201915b505050505081526020016001820180546114789061480a565b80601f01602080910402602001604051908101604052809291908181526020018280546114a49061480a565b80156114f15780601f106114c6576101008083540402835291602001916114f1565b820191906000526020600020905b8154815290600101906020018083116114d457829003601f168201915b5050505050815260200160028201805461150a9061480a565b80601f01602080910402602001604051908101604052809291908181526020018280546115369061480a565b80156115835780601f1061155857610100808354040283529160200191611583565b820191906000526020600020905b81548152906001019060200180831161156657829003601f168201915b5050505050815260200160038201805461159c9061480a565b80601f01602080910402602001604051908101604052809291908181526020018280546115c89061480a565b80156116155780601f106115ea57610100808354040283529160200191611615565b820191906000526020600020905b8154815290600101906020018083116115f857829003601f168201915b5050505050815260200160048201805461162e9061480a565b80601f016020809104026020016040519081016040528092919081815260200182805461165a9061480a565b80156116a75780601f1061167c576101008083540402835291602001916116a7565b820191906000526020600020905b81548152906001019060200180831161168a57829003601f168201915b505050505081526020016005820180546116c09061480a565b80601f01602080910402602001604051908101604052809291908181526020018280546116ec9061480a565b80156117395780601f1061170e57610100808354040283529160200191611739565b820191906000526020600020905b81548152906001019060200180831161171c57829003601f168201915b505050505081526020016006820180546117529061480a565b80601f016020809104026020016040519081016040528092919081815260200182805461177e9061480a565b80156117cb5780601f106117a0576101008083540402835291602001916117cb565b820191906000526020600020905b8154815290600101906020018083116117ae57829003601f168201915b505050505081526020016007820180546117e49061480a565b80601f01602080910402602001604051908101604052809291908181526020018280546118109061480a565b801561185d5780601f106118325761010080835404028352916020019161185d565b820191906000526020600020905b81548152906001019060200180831161184057829003601f168201915b5050509190925250505060c001519392505050565b60606000600160008481526020019081526020016000206040518060a00160405290816000820180546118a49061480a565b80601f01602080910402602001604051908101604052809291908181526020018280546118d09061480a565b801561191d5780601f106118f25761010080835404028352916020019161191d565b820191906000526020600020905b81548152906001019060200180831161190057829003601f168201915b505050505081526020016001820180546119369061480a565b80601f01602080910402602001604051908101604052809291908181526020018280546119629061480a565b80156119af5780601f10611984576101008083540402835291602001916119af565b820191906000526020600020905b81548152906001019060200180831161199257829003601f168201915b505050505081526020016002820180546119c89061480a565b80601f01602080910402602001604051908101604052809291908181526020018280546119f49061480a565b8015611a415780601f10611a1657610100808354040283529160200191611a41565b820191906000526020600020905b815481529060010190602001808311611a2457829003601f168201915b50505050508152602001600382018054611a5a9061480a565b80601f0160208091040260200160405190810160405280929190818152602001828054611a869061480a565b8015611ad35780601f10611aa857610100808354040283529160200191611ad3565b820191906000526020600020905b815481529060010190602001808311611ab657829003601f168201915b50505050508152602001600482018054611aec9061480a565b80601f0160208091040260200160405190810160405280929190818152602001828054611b189061480a565b8015611b655780601f10611b3a57610100808354040283529160200191611b65565b820191906000526020600020905b815481529060010190602001808311611b4857829003601f168201915b50505091909252505050606001519392505050565b606060006003600084815260200190815260200160002060405180610100016040529081600082018054611bad9061480a565b80601f0160208091040260200160405190810160405280929190818152602001828054611bd99061480a565b8015611c265780601f10611bfb57610100808354040283529160200191611c26565b820191906000526020600020905b815481529060010190602001808311611c0957829003601f168201915b50505050508152602001600182018054611c3f9061480a565b80601f0160208091040260200160405190810160405280929190818152602001828054611c6b9061480a565b8015611cb85780601f10611c8d57610100808354040283529160200191611cb8565b820191906000526020600020905b815481529060010190602001808311611c9b57829003601f168201915b50505050508152602001600282018054611cd19061480a565b80601f0160208091040260200160405190810160405280929190818152602001828054611cfd9061480a565b8015611d4a5780601f10611d1f57610100808354040283529160200191611d4a565b820191906000526020600020905b815481529060010190602001808311611d2d57829003601f168201915b50505050508152602001600382018054611d639061480a565b80601f0160208091040260200160405190810160405280929190818152602001828054611d8f9061480a565b8015611ddc5780601f10611db157610100808354040283529160200191611ddc565b820191906000526020600020905b815481529060010190602001808311611dbf57829003601f168201915b50505050508152602001600482018054611df59061480a565b80601f0160208091040260200160405190810160405280929190818152602001828054611e219061480a565b8015611e6e5780601f10611e4357610100808354040283529160200191611e6e565b820191906000526020600020905b815481529060010190602001808311611e5157829003601f168201915b50505050508152602001600582018054611e879061480a565b80601f0160208091040260200160405190810160405280929190818152602001828054611eb39061480a565b8015611f005780601f10611ed557610100808354040283529160200191611f00565b820191906000526020600020905b815481529060010190602001808311611ee357829003601f168201915b50505050508152602001600682018054611f199061480a565b80601f0160208091040260200160405190810160405280929190818152602001828054611f459061480a565b8015611f925780601f10611f6757610100808354040283529160200191611f92565b820191906000526020600020905b815481529060010190602001808311611f7557829003601f168201915b50505050508152602001600782018054611aec9061480a565b60606000600560008481526020019081526020016000206040518060a0016040529081600082018054611fdd9061480a565b80601f01602080910402602001604051908101604052809291908181526020018280546120099061480a565b80156120565780601f1061202b57610100808354040283529160200191612056565b820191906000526020600020905b81548152906001019060200180831161203957829003601f168201915b5050505050815260200160018201805461206f9061480a565b80601f016020809104026020016040519081016040528092919081815260200182805461209b9061480a565b80156120e85780601f106120bd576101008083540402835291602001916120e8565b820191906000526020600020905b8154815290600101906020018083116120cb57829003601f168201915b505050505081526020016002820180546121019061480a565b80601f016020809104026020016040519081016040528092919081815260200182805461212d9061480a565b801561217a5780601f1061214f5761010080835404028352916020019161217a565b820191906000526020600020905b81548152906001019060200180831161215d57829003601f168201915b505050505081526020016003820180546121939061480a565b80601f01602080910402602001604051908101604052809291908181526020018280546121bf9061480a565b801561220c5780601f106121e15761010080835404028352916020019161220c565b820191906000526020600020905b8154815290600101906020018083116121ef57829003601f168201915b505050505081526020016004820180546122259061480a565b80601f01602080910402602001604051908101604052809291908181526020018280546122519061480a565b801561229e5780601f106122735761010080835404028352916020019161229e565b820191906000526020600020905b81548152906001019060200180831161228157829003601f168201915b5050509190925250509051949350505050565b6060600060036000848152602001908152602001600020604051806101000160405290816000820180546122e49061480a565b80601f01602080910402602001604051908101604052809291908181526020018280546123109061480a565b801561235d5780601f106123325761010080835404028352916020019161235d565b820191906000526020600020905b81548152906001019060200180831161234057829003601f168201915b505050505081526020016001820180546123769061480a565b80601f01602080910402602001604051908101604052809291908181526020018280546123a29061480a565b80156123ef5780601f106123c4576101008083540402835291602001916123ef565b820191906000526020600020905b8154815290600101906020018083116123d257829003601f168201915b505050505081526020016002820180546124089061480a565b80601f01602080910402602001604051908101604052809291908181526020018280546124349061480a565b80156124815780601f1061245657610100808354040283529160200191612481565b820191906000526020600020905b81548152906001019060200180831161246457829003601f168201915b5050505050815260200160038201805461249a9061480a565b80601f01602080910402602001604051908101604052809291908181526020018280546124c69061480a565b80156125135780601f106124e857610100808354040283529160200191612513565b820191906000526020600020905b8154815290600101906020018083116124f657829003601f168201915b5050505050815260200160048201805461252c9061480a565b80601f01602080910402602001604051908101604052809291908181526020018280546125589061480a565b80156125a55780601f1061257a576101008083540402835291602001916125a5565b820191906000526020600020905b81548152906001019060200180831161258857829003601f168201915b505050505081526020016005820180546125be9061480a565b80601f01602080910402602001604051908101604052809291908181526020018280546125ea9061480a565b80156126375780601f1061260c57610100808354040283529160200191612637565b820191906000526020600020905b81548152906001019060200180831161261a57829003601f168201915b505050505081526020016006820180546126509061480a565b80601f016020809104026020016040519081016040528092919081815260200182805461267c9061480a565b80156126c95780601f1061269e576101008083540402835291602001916126c9565b820191906000526020600020905b8154815290600101906020018083116126ac57829003601f168201915b505050505081526020016007820180546126e29061480a565b80601f016020809104026020016040519081016040528092919081815260200182805461270e9061480a565b801561275b5780601f106127305761010080835404028352916020019161275b565b820191906000526020600020905b81548152906001019060200180831161273e57829003601f168201915b50505091909252505050602001519392505050565b6060600060036000848152602001908152602001600020604051806101000160405290816000820180546127a39061480a565b80601f01602080910402602001604051908101604052809291908181526020018280546127cf9061480a565b801561281c5780601f106127f15761010080835404028352916020019161281c565b820191906000526020600020905b8154815290600101906020018083116127ff57829003601f168201915b505050505081526020016001820180546128359061480a565b80601f01602080910402602001604051908101604052809291908181526020018280546128619061480a565b80156128ae5780601f10612883576101008083540402835291602001916128ae565b820191906000526020600020905b81548152906001019060200180831161289157829003601f168201915b505050505081526020016002820180546128c79061480a565b80601f01602080910402602001604051908101604052809291908181526020018280546128f39061480a565b80156129405780601f1061291557610100808354040283529160200191612940565b820191906000526020600020905b81548152906001019060200180831161292357829003601f168201915b505050505081526020016003820180546129599061480a565b80601f01602080910402602001604051908101604052809291908181526020018280546129859061480a565b80156129d25780601f106129a7576101008083540402835291602001916129d2565b820191906000526020600020905b8154815290600101906020018083116129b557829003601f168201915b505050505081526020016004820180546129eb9061480a565b80601f0160208091040260200160405190810160405280929190818152602001828054612a179061480a565b8015612a645780601f10612a3957610100808354040283529160200191612a64565b820191906000526020600020905b815481529060010190602001808311612a4757829003601f168201915b50505050508152602001600582018054612a7d9061480a565b80601f0160208091040260200160405190810160405280929190818152602001828054612aa99061480a565b8015612af65780601f10612acb57610100808354040283529160200191612af6565b820191906000526020600020905b815481529060010190602001808311612ad957829003601f168201915b50505050508152602001600682018054612b0f9061480a565b80601f0160208091040260200160405190810160405280929190818152602001828054612b3b9061480a565b8015612b885780601f10612b5d57610100808354040283529160200191612b88565b820191906000526020600020905b815481529060010190602001808311612b6b57829003601f168201915b505050505081526020016007820180546110799061480a565b604051806101000160405280898152602001888152602001878152602001868152602001858152602001848152602001838152602001828152506003600060025481526020019081526020016000206000820151816000019080519060200190612c0c9291906142c0565b506020828101518051612c2592600185019201906142c0565b5060408201518051612c419160028401916020909101906142c0565b5060608201518051612c5d9160038401916020909101906142c0565b5060808201518051612c799160048401916020909101906142c0565b5060a08201518051612c959160058401916020909101906142c0565b5060c08201518051612cb19160068401916020909101906142c0565b5060e08201518051612ccd9160078401916020909101906142c0565b50506002546040519091507ffc8089ba84edfb52e537a969d5325cf3caecf19fb6e963c7c36d208b0ca49f9b90600090a260028054906000612d0e8361485e565b91905055505050505050505050565b606060006003600084815260200190815260200160002060405180610100016040529081600082018054612d509061480a565b80601f0160208091040260200160405190810160405280929190818152602001828054612d7c9061480a565b8015612dc95780601f10612d9e57610100808354040283529160200191612dc9565b820191906000526020600020905b815481529060010190602001808311612dac57829003601f168201915b50505050508152602001600182018054612de29061480a565b80601f0160208091040260200160405190810160405280929190818152602001828054612e0e9061480a565b8015612e5b5780601f10612e3057610100808354040283529160200191612e5b565b820191906000526020600020905b815481529060010190602001808311612e3e57829003601f168201915b50505050508152602001600282018054612e749061480a565b80601f0160208091040260200160405190810160405280929190818152602001828054612ea09061480a565b8015612eed5780601f10612ec257610100808354040283529160200191612eed565b820191906000526020600020905b815481529060010190602001808311612ed057829003601f168201915b50505050508152602001600382018054612f069061480a565b80601f0160208091040260200160405190810160405280929190818152602001828054612f329061480a565b8015612f7f5780601f10612f5457610100808354040283529160200191612f7f565b820191906000526020600020905b815481529060010190602001808311612f6257829003601f168201915b50505050508152602001600482018054612f989061480a565b80601f0160208091040260200160405190810160405280929190818152602001828054612fc49061480a565b80156130115780601f10612fe657610100808354040283529160200191613011565b820191906000526020600020905b815481529060010190602001808311612ff457829003601f168201915b5050505050815260200160058201805461302a9061480a565b80601f01602080910402602001604051908101604052809291908181526020018280546130569061480a565b80156130a35780601f10613078576101008083540402835291602001916130a3565b820191906000526020600020905b81548152906001019060200180831161308657829003601f168201915b505050505081526020016006820180546130bc9061480a565b80601f01602080910402602001604051908101604052809291908181526020018280546130e89061480a565b80156131355780601f1061310a57610100808354040283529160200191613135565b820191906000526020600020905b81548152906001019060200180831161311857829003601f168201915b505050505081526020016007820180546122259061480a565b6005602052600090815260409020805481906131699061480a565b80601f01602080910402602001604051908101604052809291908181526020018280546131959061480a565b80156131e25780601f106131b7576101008083540402835291602001916131e2565b820191906000526020600020905b8154815290600101906020018083116131c557829003601f168201915b5050505050908060010180546131f79061480a565b80601f01602080910402602001604051908101604052809291908181526020018280546132239061480a565b80156132705780601f1061324557610100808354040283529160200191613270565b820191906000526020600020905b81548152906001019060200180831161325357829003601f168201915b5050505050908060020180546132859061480a565b80601f01602080910402602001604051908101604052809291908181526020018280546132b19061480a565b80156132fe5780601f106132d3576101008083540402835291602001916132fe565b820191906000526020600020905b8154815290600101906020018083116132e157829003601f168201915b5050505050908060030180546133139061480a565b80601f016020809104026020016040519081016040528092919081815260200182805461333f9061480a565b801561338c5780601f106133615761010080835404028352916020019161338c565b820191906000526020600020905b81548152906001019060200180831161336f57829003601f168201915b5050505050908060040180546133a19061480a565b80601f01602080910402602001604051908101604052809291908181526020018280546133cd9061480a565b801561341a5780601f106133ef5761010080835404028352916020019161341a565b820191906000526020600020905b8154815290600101906020018083116133fd57829003601f168201915b5050505050905085565b60606000600560008481526020019081526020016000206040518060a001604052908160008201805461116b9061480a565b6001602052600090815260409020805481906131699061480a565b60606000600560008481526020019081526020016000206040518060a00160405290816000820180546118a49061480a565b6003602052600090815260409020805481906134be9061480a565b80601f01602080910402602001604051908101604052809291908181526020018280546134ea9061480a565b80156135375780601f1061350c57610100808354040283529160200191613537565b820191906000526020600020905b81548152906001019060200180831161351a57829003601f168201915b50505050509080600101805461354c9061480a565b80601f01602080910402602001604051908101604052809291908181526020018280546135789061480a565b80156135c55780601f1061359a576101008083540402835291602001916135c5565b820191906000526020600020905b8154815290600101906020018083116135a857829003601f168201915b5050505050908060020180546135da9061480a565b80601f01602080910402602001604051908101604052809291908181526020018280546136069061480a565b80156136535780601f1061362857610100808354040283529160200191613653565b820191906000526020600020905b81548152906001019060200180831161363657829003601f168201915b5050505050908060030180546136689061480a565b80601f01602080910402602001604051908101604052809291908181526020018280546136949061480a565b80156136e15780601f106136b6576101008083540402835291602001916136e1565b820191906000526020600020905b8154815290600101906020018083116136c457829003601f168201915b5050505050908060040180546136f69061480a565b80601f01602080910402602001604051908101604052809291908181526020018280546137229061480a565b801561376f5780601f106137445761010080835404028352916020019161376f565b820191906000526020600020905b81548152906001019060200180831161375257829003601f168201915b5050505050908060050180546137849061480a565b80601f01602080910402602001604051908101604052809291908181526020018280546137b09061480a565b80156137fd5780601f106137d2576101008083540402835291602001916137fd565b820191906000526020600020905b8154815290600101906020018083116137e057829003601f168201915b5050505050908060060180546138129061480a565b80601f016020809104026020016040519081016040528092919081815260200182805461383e9061480a565b801561388b5780601f106138605761010080835404028352916020019161388b565b820191906000526020600020905b81548152906001019060200180831161386e57829003601f168201915b5050505050908060070180546138a09061480a565b80601f01602080910402602001604051908101604052809291908181526020018280546138cc9061480a565b80156139195780601f106138ee57610100808354040283529160200191613919565b820191906000526020600020905b8154815290600101906020018083116138fc57829003601f168201915b5050505050905088565b6060600060036000848152602001908152602001600020604051806101000160405290816000820180546139569061480a565b80601f01602080910402602001604051908101604052809291908181526020018280546139829061480a565b80156139cf5780601f106139a4576101008083540402835291602001916139cf565b820191906000526020600020905b8154815290600101906020018083116139b257829003601f168201915b505050505081526020016001820180546139e89061480a565b80601f0160208091040260200160405190810160405280929190818152602001828054613a149061480a565b8015613a615780601f10613a3657610100808354040283529160200191613a61565b820191906000526020600020905b815481529060010190602001808311613a4457829003601f168201915b50505050508152602001600282018054613a7a9061480a565b80601f0160208091040260200160405190810160405280929190818152602001828054613aa69061480a565b8015613af35780601f10613ac857610100808354040283529160200191613af3565b820191906000526020600020905b815481529060010190602001808311613ad657829003601f168201915b50505050508152602001600382018054613b0c9061480a565b80601f0160208091040260200160405190810160405280929190818152602001828054613b389061480a565b8015613b855780601f10613b5a57610100808354040283529160200191613b85565b820191906000526020600020905b815481529060010190602001808311613b6857829003601f168201915b50505050508152602001600482018054613b9e9061480a565b80601f0160208091040260200160405190810160405280929190818152602001828054613bca9061480a565b8015613c175780601f10613bec57610100808354040283529160200191613c17565b820191906000526020600020905b815481529060010190602001808311613bfa57829003601f168201915b50505050508152602001600582018054613c309061480a565b80601f0160208091040260200160405190810160405280929190818152602001828054613c5c9061480a565b8015613ca95780601f10613c7e57610100808354040283529160200191613ca9565b820191906000526020600020905b815481529060010190602001808311613c8c57829003601f168201915b50505050508152602001600682018054613cc29061480a565b80601f0160208091040260200160405190810160405280929190818152602001828054613cee9061480a565b8015613d3b5780601f10613d1057610100808354040283529160200191613d3b565b820191906000526020600020905b815481529060010190602001808311613d1e57829003601f168201915b50505050508152602001600782018054613d549061480a565b80601f0160208091040260200160405190810160405280929190818152602001828054613d809061480a565b8015613dcd5780601f10613da257610100808354040283529160200191613dcd565b820191906000526020600020905b815481529060010190602001808311613db057829003601f168201915b5050509190925250505060a001519392505050565b6040805160a08101825286815260208082018790528183018690526060820185905260808201849052600454600090815260058252929092208151805192939192613e3092849201906142c0565b506020828101518051613e4992600185019201906142c0565b5060408201518051613e659160028401916020909101906142c0565b5060608201518051613e819160038401916020909101906142c0565b5060808201518051613e9d9160048401916020909101906142c0565b50506004546040519091507f474a6d508e0689c30c8181f2ef4456d167baef51edc928155e8b898503255a7e90600090a260048054906000613ede8361485e565b91905055505050505050565b60606000600560008481526020019081526020016000206040518060a0016040529081600082018054613f1c9061480a565b80601f0160208091040260200160405190810160405280929190818152602001828054613f489061480a565b8015613f955780601f10613f6a57610100808354040283529160200191613f95565b820191906000526020600020905b815481529060010190602001808311613f7857829003601f168201915b50505050508152602001600182018054613fae9061480a565b80601f0160208091040260200160405190810160405280929190818152602001828054613fda9061480a565b80156140275780601f10613ffc57610100808354040283529160200191614027565b820191906000526020600020905b81548152906001019060200180831161400a57829003601f168201915b505050505081526020016002820180546140409061480a565b80601f016020809104026020016040519081016040528092919081815260200182805461406c9061480a565b80156140b95780601f1061408e576101008083540402835291602001916140b9565b820191906000526020600020905b81548152906001019060200180831161409c57829003601f168201915b505050505081526020016003820180546140d29061480a565b80601f01602080910402602001604051908101604052809291908181526020018280546140fe9061480a565b801561414b5780601f106141205761010080835404028352916020019161414b565b820191906000526020600020905b81548152906001019060200180831161412e57829003601f168201915b505050505081526020016004820180546126e29061480a565b6040805160a08101825286815260208082018790528183018690526060820185905260808201849052600080548152600182529290922081518051929391926141b092849201906142c0565b5060208281015180516141c992600185019201906142c0565b50604082015180516141e59160028401916020909101906142c0565b50606082015180516142019160038401916020909101906142c0565b506080820151805161421d9160048401916020909101906142c0565b5050600080546040519092507f1ed675bb725b3a8b0434b9ee956fe05e4c0e79f9dc67c3f1a717a5bb1fd88fd39190a2600080549080613ede8361485e565b60606000600160008481526020019081526020016000206040518060a0016040529081600082018054611fdd9061480a565b60606000600160008481526020019081526020016000206040518060a0016040529081600082018054613f1c9061480a565b8280546142cc9061480a565b90600052602060002090601f0160209004810192826142ee5760008555614334565b82601f1061430757805160ff1916838001178555614334565b82800160010185558215614334579182015b82811115614334578251825591602001919060010190614319565b50614340929150614344565b5090565b5b808211156143405760008155600101614345565b60006020828403121561436b57600080fd5b5035919050565b6000815180845260005b818110156143985760208185018101518683018201520161437c565b818111156143aa576000602083870101525b50601f01601f19169290920160200192915050565b6020815260006143d26020830184614372565b9392505050565b7f4e487b7100000000000000000000000000000000000000000000000000000000600052604160045260246000fd5b600082601f83011261441957600080fd5b813567ffffffffffffffff80821115614434576144346143d9565b604051601f8301601f19908116603f0116810190828211818310171561445c5761445c6143d9565b8160405283815286602085880101111561447557600080fd5b836020870160208301376000602085830101528094505050505092915050565b600080604083850312156144a857600080fd5b82359150602083013567ffffffffffffffff8111156144c657600080fd5b6144d285828601614408565b9150509250929050565b600080600080600080600080610100898b0312156144f957600080fd5b883567ffffffffffffffff8082111561451157600080fd5b61451d8c838d01614408565b995060208b013591508082111561453357600080fd5b61453f8c838d01614408565b985060408b013591508082111561455557600080fd5b6145618c838d01614408565b975060608b013591508082111561457757600080fd5b6145838c838d01614408565b965060808b013591508082111561459957600080fd5b6145a58c838d01614408565b955060a08b01359150808211156145bb57600080fd5b6145c78c838d01614408565b945060c08b01359150808211156145dd57600080fd5b6145e98c838d01614408565b935060e08b01359150808211156145ff57600080fd5b5061460c8b828c01614408565b9150509295985092959890939650565b60a08152600061462f60a0830188614372565b82810360208401526146418188614372565b905082810360408401526146558187614372565b905082810360608401526146698186614372565b9050828103608084015261467d8185614372565b98975050505050505050565b600061010080835261469d8184018c614372565b905082810360208401526146b1818b614372565b905082810360408401526146c5818a614372565b905082810360608401526146d98189614372565b905082810360808401526146ed8188614372565b905082810360a08401526147018187614372565b905082810360c08401526147158186614372565b905082810360e08401526147298185614372565b9b9a5050505050505050505050565b600080600080600060a0868803121561475057600080fd5b853567ffffffffffffffff8082111561476857600080fd5b61477489838a01614408565b9650602088013591508082111561478a57600080fd5b61479689838a01614408565b955060408801359150808211156147ac57600080fd5b6147b889838a01614408565b945060608801359150808211156147ce57600080fd5b6147da89838a01614408565b935060808801359150808211156147f057600080fd5b506147fd88828901614408565b9150509295509295909350565b60028104600182168061481e57607f821691505b60208210811415614858577f4e487b7100000000000000000000000000000000000000000000000000000000600052602260045260246000fd5b50919050565b6000600019821415614899577f4e487b7100000000000000000000000000000000000000000000000000000000600052601160045260246000fd5b506001019056fea264697066735822122024a9bf6838675107021a7e66227368ace6c4f17dd2a57e5d6a6ee42da1e6fb1664736f6c634300080b0033",
  "immutableReferences": {},
  "source": "pragma solidity >= 0.8.11 <= 0.8.11;\r\npragma experimental ABIEncoderV2;\r\n//evault solidity code\r\ncontract Healthcare {\r\n\r\n    uint public userCount = 0; \r\n    mapping(uint => user) public userList; \r\n     struct user\r\n     {\r\n       string username;\r\n       string password;\r\n       string phone;\r\n       string desc;\r\n       string usertype;\r\n     }\r\n \r\n   // events \r\n   event userCreated(uint indexed _userId);\r\n   \r\n   //function  to save user details to Blockchain\r\n   function saveUser(string memory uname, string memory pass, string memory phone, string memory desc, string memory utype) public {\r\n      userList[userCount] = user(uname, pass, phone, desc, utype);\r\n      emit userCreated(userCount);\r\n      userCount++;\r\n    }\r\n\r\n     //get user count\r\n    function getUserCount()  public view returns (uint) {\r\n          return  userCount;\r\n    }\r\n\r\n    uint public ehrCount = 0; \r\n    mapping(uint => ehr) public ehrList; \r\n     struct ehr\r\n     {\r\n       string username;\r\n       string doctorname;\r\n       string disease_details;\r\n       string report;\r\n       string prescription;\r\n       string ehr_date;   \r\n       string payment;\r\n       string signature;\r\n     }\r\n \r\n   // events \r\n   event ehrCreated(uint indexed _ehrId);\r\n   \r\n   //function  to save EHR details to Blockchain\r\n   function saveEhr(string memory uname, string memory doctor, string memory disease, string memory report, string memory pres, string memory edate, string memory pay, string memory sig) public {\r\n      ehrList[ehrCount] = ehr(uname, doctor, disease, report, pres, edate, pay, sig);\r\n      emit ehrCreated(ehrCount);\r\n      ehrCount++;\r\n    }\r\n\r\n    function updatePrescription(uint i, string memory pres) public { \r\n      ehrList[i].prescription = pres;\r\n   }\r\n\r\n     //get ehr count\r\n    function getEhrCount()  public view returns (uint) {\r\n          return  ehrCount;\r\n    }\r\n\r\n    uint public ratingCount = 0; \r\n    mapping(uint => rating) public ratingList; \r\n     struct rating\r\n     {\r\n       string doctor;\r\n       string user;\r\n       string review;\r\n       string rating;\r\n       string rating_date;       \r\n     }\r\n \r\n   // events \r\n   event ratingCreated(uint indexed _ratingId);\r\n   \r\n   //function  to save Rating details to Blockchain\r\n   function saveRating(string memory doctors, string memory users, string memory reviews, string memory ratings, string memory rating_dates) public {\r\n      ratingList[ratingCount] = rating(doctors, users, reviews, ratings, rating_dates);\r\n      emit ratingCreated(ratingCount);\r\n     ratingCount++;\r\n    }\r\n\r\n     //get ehr count\r\n    function getRatingCount()  public view returns (uint) {\r\n          return  ratingCount;\r\n    }\r\n\r\n\r\n    function getUsername(uint i) public view returns (string memory) {\r\n        user memory doc = userList[i];\r\n\treturn doc.username;\r\n    }\r\n\r\n    function getPassword(uint i) public view returns (string memory) {\r\n        user memory doc = userList[i];\r\n\treturn doc.password;\r\n    }\r\n\r\n    function getPhone(uint i) public view returns (string memory) {\r\n        user memory doc = userList[i];\r\n\treturn doc.phone;\r\n    }    \r\n\r\n    function getDescription(uint i) public view returns (string memory) {\r\n        user memory doc = userList[i];\r\n\treturn doc.desc;\r\n    }\r\n\r\n    function getUserType(uint i) public view returns (string memory) {\r\n        user memory doc = userList[i];\r\n\treturn doc.usertype;\r\n    }\r\n\r\n    function getPatient(uint i) public view returns (string memory) {\r\n        ehr memory doc = ehrList[i];\r\n\treturn doc.username;\r\n    }\r\n\r\n    function getDoctor(uint i) public view returns (string memory) {\r\n        ehr memory doc = ehrList[i];\r\n\treturn doc.doctorname;\r\n    }\r\n\r\n    function getDisease(uint i) public view returns (string memory) {\r\n        ehr memory doc = ehrList[i];\r\n\treturn doc.disease_details;\r\n    }\r\n\r\n    function getReport(uint i) public view returns (string memory) {\r\n        ehr memory doc = ehrList[i];\r\n\treturn doc.report;\r\n    }\r\n\r\n    function getPrescription(uint i) public view returns (string memory) {\r\n        ehr memory doc = ehrList[i];\r\n\treturn doc.prescription;\r\n    }\r\n\r\n    function getPayment(uint i) public view returns (string memory) {\r\n        ehr memory doc = ehrList[i];\r\n\treturn doc.payment;\r\n    }\r\n\r\n    function getSignature(uint i) public view returns (string memory) {\r\n        ehr memory doc = ehrList[i];\r\n\treturn doc.signature;\r\n    }\r\n\r\n    function getEhrDate(uint i) public view returns (string memory) {\r\n        ehr memory doc = ehrList[i];\r\n\treturn doc.ehr_date;\r\n    }\r\n\r\n    function getDoctorRating(uint i) public view returns (string memory) {\r\n        rating memory doc = ratingList[i];\r\n\treturn doc.doctor;\r\n    }\r\n\r\n    function getUserRating(uint i) public view returns (string memory) {\r\n        rating memory doc = ratingList[i];\r\n\treturn doc.user;\r\n    }\r\n\r\n    function getReview(uint i) public view returns (string memory) {\r\n        rating memory doc = ratingList[i];\r\n\treturn doc.review;\r\n    }\r\n\r\n    function getRating(uint i) public view returns (string memory) {\r\n        rating memory doc = ratingList[i];\r\n\treturn doc.rating;\r\n    }\r\n\r\n    function getRatingDate(uint i) public view returns (string memory) {\r\n        rating memory doc = ratingList[i];\r\n\treturn doc.rating_date;\r\n    }\r\n\r\n}",
  "sourcePath": "C:\\Users\\Admin\\Desktop\\Blockchain\\hello-eth\\node_modules\\.bin\\contracts\\Healthcare.sol",
  "compiler": {
    "name": "solc",
    "version": "0.8.11+commit.d7f03943.Emscripten.clang"
  },
  "schemaVersion": "3.4.4",
  "updatedAt": "2024-06-25T07:53:45.188Z",
  "networkType": "ethereum",
  "devdoc": {
    "kind": "dev",
    "methods": {},
    "version": 1
  },
  "userdoc": {
    "kind": "user",
    "methods": {},
    "version": 1
  }
}